{
  "_format": "hh-sol-artifact-1",
  "contractName": "FinePandas",
  "sourceName": "contracts/FinePandas.sol",
  "abi": [
    {
      "inputs": [
        {
          "internalType": "string",
          "name": "_initBaseURI",
          "type": "string"
        },
        {
          "internalType": "address[]",
          "name": "payees",
          "type": "address[]"
        },
        {
          "internalType": "uint256[]",
          "name": "shares",
          "type": "uint256[]"
        },
        {
          "internalType": "address",
          "name": "agregatorInterface",
          "type": "address"
        }
      ],
      "stateMutability": "nonpayable",
      "type": "constructor"
    },
    {
      "anonymous": false,
      "inputs": [
        {
          "indexed": true,
          "internalType": "address",
          "name": "owner",
          "type": "address"
        },
        {
          "indexed": true,
          "internalType": "address",
          "name": "approved",
          "type": "address"
        },
        {
          "indexed": true,
          "internalType": "uint256",
          "name": "tokenId",
          "type": "uint256"
        }
      ],
      "name": "Approval",
      "type": "event"
    },
    {
      "anonymous": false,
      "inputs": [
        {
          "indexed": true,
          "internalType": "address",
          "name": "owner",
          "type": "address"
        },
        {
          "indexed": true,
          "internalType": "address",
          "name": "operator",
          "type": "address"
        },
        {
          "indexed": false,
          "internalType": "bool",
          "name": "approved",
          "type": "bool"
        }
      ],
      "name": "ApprovalForAll",
      "type": "event"
    },
    {
      "anonymous": false,
      "inputs": [
        {
          "indexed": true,
          "internalType": "contract IERC20",
          "name": "token",
          "type": "address"
        },
        {
          "indexed": false,
          "internalType": "address",
          "name": "to",
          "type": "address"
        },
        {
          "indexed": false,
          "internalType": "uint256",
          "name": "amount",
          "type": "uint256"
        }
      ],
      "name": "ERC20PaymentReleased",
      "type": "event"
    },
    {
      "anonymous": false,
      "inputs": [
        {
          "indexed": true,
          "internalType": "address",
          "name": "previousOwner",
          "type": "address"
        },
        {
          "indexed": true,
          "internalType": "address",
          "name": "newOwner",
          "type": "address"
        }
      ],
      "name": "OwnershipTransferred",
      "type": "event"
    },
    {
      "anonymous": false,
      "inputs": [
        {
          "indexed": false,
          "internalType": "address",
          "name": "account",
          "type": "address"
        },
        {
          "indexed": false,
          "internalType": "uint256",
          "name": "shares",
          "type": "uint256"
        }
      ],
      "name": "PayeeAdded",
      "type": "event"
    },
    {
      "anonymous": false,
      "inputs": [
        {
          "indexed": false,
          "internalType": "address",
          "name": "from",
          "type": "address"
        },
        {
          "indexed": false,
          "internalType": "uint256",
          "name": "amount",
          "type": "uint256"
        }
      ],
      "name": "PaymentReceived",
      "type": "event"
    },
    {
      "anonymous": false,
      "inputs": [
        {
          "indexed": false,
          "internalType": "address",
          "name": "to",
          "type": "address"
        },
        {
          "indexed": false,
          "internalType": "uint256",
          "name": "amount",
          "type": "uint256"
        }
      ],
      "name": "PaymentReleased",
      "type": "event"
    },
    {
      "anonymous": false,
      "inputs": [
        {
          "indexed": true,
          "internalType": "address",
          "name": "from",
          "type": "address"
        },
        {
          "indexed": true,
          "internalType": "address",
          "name": "to",
          "type": "address"
        },
        {
          "indexed": true,
          "internalType": "uint256",
          "name": "tokenId",
          "type": "uint256"
        }
      ],
      "name": "Transfer",
      "type": "event"
    },
    {
      "inputs": [],
      "name": "MintRare",
      "outputs": [],
      "stateMutability": "nonpayable",
      "type": "function"
    },
    {
      "inputs": [
        {
          "internalType": "uint256[]",
          "name": "idList",
          "type": "uint256[]"
        }
      ],
      "name": "RareOwners",
      "outputs": [],
      "stateMutability": "nonpayable",
      "type": "function"
    },
    {
      "inputs": [
        {
          "internalType": "address",
          "name": "to",
          "type": "address"
        },
        {
          "internalType": "uint256",
          "name": "tokenId",
          "type": "uint256"
        }
      ],
      "name": "approve",
      "outputs": [],
      "stateMutability": "nonpayable",
      "type": "function"
    },
    {
      "inputs": [
        {
          "internalType": "address",
          "name": "owner",
          "type": "address"
        }
      ],
      "name": "balanceOf",
      "outputs": [
        {
          "internalType": "uint256",
          "name": "",
          "type": "uint256"
        }
      ],
      "stateMutability": "view",
      "type": "function"
    },
    {
      "inputs": [],
      "name": "baseExtension",
      "outputs": [
        {
          "internalType": "string",
          "name": "",
          "type": "string"
        }
      ],
      "stateMutability": "view",
      "type": "function"
    },
    {
      "inputs": [],
      "name": "cost",
      "outputs": [
        {
          "internalType": "int256",
          "name": "",
          "type": "int256"
        }
      ],
      "stateMutability": "view",
      "type": "function"
    },
    {
      "inputs": [],
      "name": "costWl",
      "outputs": [
        {
          "internalType": "int256",
          "name": "",
          "type": "int256"
        }
      ],
      "stateMutability": "view",
      "type": "function"
    },
    {
      "inputs": [
        {
          "internalType": "uint256",
          "name": "tokenId",
          "type": "uint256"
        }
      ],
      "name": "getApproved",
      "outputs": [
        {
          "internalType": "address",
          "name": "",
          "type": "address"
        }
      ],
      "stateMutability": "view",
      "type": "function"
    },
    {
      "inputs": [
        {
          "internalType": "int256",
          "name": "ccost",
          "type": "int256"
        }
      ],
      "name": "getPriceByUsdt",
      "outputs": [
        {
          "internalType": "uint256",
          "name": "pricePerPanda",
          "type": "uint256"
        }
      ],
      "stateMutability": "view",
      "type": "function"
    },
    {
      "inputs": [
        {
          "internalType": "address",
          "name": "owner",
          "type": "address"
        },
        {
          "internalType": "address",
          "name": "operator",
          "type": "address"
        }
      ],
      "name": "isApprovedForAll",
      "outputs": [
        {
          "internalType": "bool",
          "name": "",
          "type": "bool"
        }
      ],
      "stateMutability": "view",
      "type": "function"
    },
    {
      "inputs": [],
      "name": "maxMintAmount",
      "outputs": [
        {
          "internalType": "uint256",
          "name": "",
          "type": "uint256"
        }
      ],
      "stateMutability": "view",
      "type": "function"
    },
    {
      "inputs": [],
      "name": "maxSupply",
      "outputs": [
        {
          "internalType": "uint256",
          "name": "",
          "type": "uint256"
        }
      ],
      "stateMutability": "view",
      "type": "function"
    },
    {
      "inputs": [
        {
          "internalType": "uint256",
          "name": "mintAmount",
          "type": "uint256"
        }
      ],
      "name": "mint",
      "outputs": [],
      "stateMutability": "payable",
      "type": "function"
    },
    {
      "inputs": [
        {
          "internalType": "bytes32[]",
          "name": "merkleProof",
          "type": "bytes32[]"
        },
        {
          "internalType": "uint256",
          "name": "mintAmount",
          "type": "uint256"
        }
      ],
      "name": "mintWhitelist",
      "outputs": [],
      "stateMutability": "payable",
      "type": "function"
    },
    {
      "inputs": [],
      "name": "name",
      "outputs": [
        {
          "internalType": "string",
          "name": "",
          "type": "string"
        }
      ],
      "stateMutability": "view",
      "type": "function"
    },
    {
      "inputs": [
        {
          "internalType": "address",
          "name": "",
          "type": "address"
        }
      ],
      "name": "nftStruct",
      "outputs": [
        {
          "internalType": "uint256",
          "name": "",
          "type": "uint256"
        }
      ],
      "stateMutability": "view",
      "type": "function"
    },
    {
      "inputs": [],
      "name": "owner",
      "outputs": [
        {
          "internalType": "address",
          "name": "",
          "type": "address"
        }
      ],
      "stateMutability": "view",
      "type": "function"
    },
    {
      "inputs": [
        {
          "internalType": "uint256",
          "name": "tokenId",
          "type": "uint256"
        }
      ],
      "name": "ownerOf",
      "outputs": [
        {
          "internalType": "address",
          "name": "",
          "type": "address"
        }
      ],
      "stateMutability": "view",
      "type": "function"
    },
    {
      "inputs": [
        {
          "internalType": "bool",
          "name": "_state",
          "type": "bool"
        }
      ],
      "name": "pause",
      "outputs": [],
      "stateMutability": "nonpayable",
      "type": "function"
    },
    {
      "inputs": [],
      "name": "paused",
      "outputs": [
        {
          "internalType": "bool",
          "name": "",
          "type": "bool"
        }
      ],
      "stateMutability": "view",
      "type": "function"
    },
    {
      "inputs": [
        {
          "internalType": "uint256",
          "name": "index",
          "type": "uint256"
        }
      ],
      "name": "payee",
      "outputs": [
        {
          "internalType": "address",
          "name": "",
          "type": "address"
        }
      ],
      "stateMutability": "view",
      "type": "function"
    },
    {
      "inputs": [
        {
          "internalType": "uint256",
          "name": "",
          "type": "uint256"
        }
      ],
      "name": "rTokens",
      "outputs": [
        {
          "internalType": "uint256",
          "name": "",
          "type": "uint256"
        }
      ],
      "stateMutability": "view",
      "type": "function"
    },
    {
      "inputs": [
        {
          "internalType": "address",
          "name": "account",
          "type": "address"
        }
      ],
      "name": "releasable",
      "outputs": [
        {
          "internalType": "uint256",
          "name": "",
          "type": "uint256"
        }
      ],
      "stateMutability": "view",
      "type": "function"
    },
    {
      "inputs": [
        {
          "internalType": "contract IERC20",
          "name": "token",
          "type": "address"
        },
        {
          "internalType": "address",
          "name": "account",
          "type": "address"
        }
      ],
      "name": "releasable",
      "outputs": [
        {
          "internalType": "uint256",
          "name": "",
          "type": "uint256"
        }
      ],
      "stateMutability": "view",
      "type": "function"
    },
    {
      "inputs": [
        {
          "internalType": "address payable",
          "name": "account",
          "type": "address"
        }
      ],
      "name": "release",
      "outputs": [],
      "stateMutability": "nonpayable",
      "type": "function"
    },
    {
      "inputs": [
        {
          "internalType": "contract IERC20",
          "name": "token",
          "type": "address"
        },
        {
          "internalType": "address",
          "name": "account",
          "type": "address"
        }
      ],
      "name": "release",
      "outputs": [],
      "stateMutability": "nonpayable",
      "type": "function"
    },
    {
      "inputs": [
        {
          "internalType": "contract IERC20",
          "name": "token",
          "type": "address"
        },
        {
          "internalType": "address",
          "name": "account",
          "type": "address"
        }
      ],
      "name": "released",
      "outputs": [
        {
          "internalType": "uint256",
          "name": "",
          "type": "uint256"
        }
      ],
      "stateMutability": "view",
      "type": "function"
    },
    {
      "inputs": [
        {
          "internalType": "address",
          "name": "account",
          "type": "address"
        }
      ],
      "name": "released",
      "outputs": [
        {
          "internalType": "uint256",
          "name": "",
          "type": "uint256"
        }
      ],
      "stateMutability": "view",
      "type": "function"
    },
    {
      "inputs": [],
      "name": "renounceOwnership",
      "outputs": [],
      "stateMutability": "nonpayable",
      "type": "function"
    },
    {
      "inputs": [],
      "name": "rewardForMarketing",
      "outputs": [
        {
          "internalType": "uint256",
          "name": "",
          "type": "uint256"
        }
      ],
      "stateMutability": "view",
      "type": "function"
    },
    {
      "inputs": [],
      "name": "rewardForTeam",
      "outputs": [
        {
          "internalType": "uint256",
          "name": "",
          "type": "uint256"
        }
      ],
      "stateMutability": "view",
      "type": "function"
    },
    {
      "inputs": [
        {
          "internalType": "address",
          "name": "from",
          "type": "address"
        },
        {
          "internalType": "address",
          "name": "to",
          "type": "address"
        },
        {
          "internalType": "uint256",
          "name": "tokenId",
          "type": "uint256"
        }
      ],
      "name": "safeTransferFrom",
      "outputs": [],
      "stateMutability": "nonpayable",
      "type": "function"
    },
    {
      "inputs": [
        {
          "internalType": "address",
          "name": "from",
          "type": "address"
        },
        {
          "internalType": "address",
          "name": "to",
          "type": "address"
        },
        {
          "internalType": "uint256",
          "name": "tokenId",
          "type": "uint256"
        },
        {
          "internalType": "bytes",
          "name": "data",
          "type": "bytes"
        }
      ],
      "name": "safeTransferFrom",
      "outputs": [],
      "stateMutability": "nonpayable",
      "type": "function"
    },
    {
      "inputs": [
        {
          "internalType": "uint256",
          "name": "count",
          "type": "uint256"
        }
      ],
      "name": "sendRewarToMarketing",
      "outputs": [],
      "stateMutability": "nonpayable",
      "type": "function"
    },
    {
      "inputs": [
        {
          "internalType": "uint256",
          "name": "count",
          "type": "uint256"
        }
      ],
      "name": "sendRewarToTeam",
      "outputs": [],
      "stateMutability": "nonpayable",
      "type": "function"
    },
    {
      "inputs": [
        {
          "internalType": "address",
          "name": "operator",
          "type": "address"
        },
        {
          "internalType": "bool",
          "name": "approved",
          "type": "bool"
        }
      ],
      "name": "setApprovalForAll",
      "outputs": [],
      "stateMutability": "nonpayable",
      "type": "function"
    },
    {
      "inputs": [
        {
          "internalType": "string",
          "name": "_newBaseExtension",
          "type": "string"
        }
      ],
      "name": "setBaseExtension",
      "outputs": [],
      "stateMutability": "nonpayable",
      "type": "function"
    },
    {
      "inputs": [
        {
          "internalType": "string",
          "name": "_newBaseURI",
          "type": "string"
        }
      ],
      "name": "setBaseURI",
      "outputs": [],
      "stateMutability": "nonpayable",
      "type": "function"
    },
    {
      "inputs": [
        {
          "internalType": "int256",
          "name": "_newCost",
          "type": "int256"
        }
      ],
      "name": "setCost",
      "outputs": [],
      "stateMutability": "nonpayable",
      "type": "function"
    },
    {
      "inputs": [
        {
          "internalType": "bytes32",
          "name": "merkleRoot",
          "type": "bytes32"
        }
      ],
      "name": "setWhitelistMerkleRoot",
      "outputs": [],
      "stateMutability": "nonpayable",
      "type": "function"
    },
    {
      "inputs": [
        {
          "internalType": "uint256",
          "name": "_newmaxMintAmount",
          "type": "uint256"
        }
      ],
      "name": "setmaxMintAmount",
      "outputs": [],
      "stateMutability": "nonpayable",
      "type": "function"
    },
    {
      "inputs": [
        {
          "internalType": "address",
          "name": "account",
          "type": "address"
        }
      ],
      "name": "shares",
      "outputs": [
        {
          "internalType": "uint256",
          "name": "",
          "type": "uint256"
        }
      ],
      "stateMutability": "view",
      "type": "function"
    },
    {
      "inputs": [
        {
          "internalType": "bytes4",
          "name": "interfaceId",
          "type": "bytes4"
        }
      ],
      "name": "supportsInterface",
      "outputs": [
        {
          "internalType": "bool",
          "name": "",
          "type": "bool"
        }
      ],
      "stateMutability": "view",
      "type": "function"
    },
    {
      "inputs": [],
      "name": "symbol",
      "outputs": [
        {
          "internalType": "string",
          "name": "",
          "type": "string"
        }
      ],
      "stateMutability": "view",
      "type": "function"
    },
    {
      "inputs": [
        {
          "internalType": "uint256",
          "name": "tokenId",
          "type": "uint256"
        }
      ],
      "name": "tokenURI",
      "outputs": [
        {
          "internalType": "string",
          "name": "",
          "type": "string"
        }
      ],
      "stateMutability": "view",
      "type": "function"
    },
    {
      "inputs": [
        {
          "internalType": "contract IERC20",
          "name": "token",
          "type": "address"
        }
      ],
      "name": "totalReleased",
      "outputs": [
        {
          "internalType": "uint256",
          "name": "",
          "type": "uint256"
        }
      ],
      "stateMutability": "view",
      "type": "function"
    },
    {
      "inputs": [],
      "name": "totalReleased",
      "outputs": [
        {
          "internalType": "uint256",
          "name": "",
          "type": "uint256"
        }
      ],
      "stateMutability": "view",
      "type": "function"
    },
    {
      "inputs": [],
      "name": "totalShares",
      "outputs": [
        {
          "internalType": "uint256",
          "name": "",
          "type": "uint256"
        }
      ],
      "stateMutability": "view",
      "type": "function"
    },
    {
      "inputs": [
        {
          "internalType": "address",
          "name": "from",
          "type": "address"
        },
        {
          "internalType": "address",
          "name": "to",
          "type": "address"
        },
        {
          "internalType": "uint256",
          "name": "tokenId",
          "type": "uint256"
        }
      ],
      "name": "transferFrom",
      "outputs": [],
      "stateMutability": "nonpayable",
      "type": "function"
    },
    {
      "inputs": [
        {
          "internalType": "address",
          "name": "newOwner",
          "type": "address"
        }
      ],
      "name": "transferOwnership",
      "outputs": [],
      "stateMutability": "nonpayable",
      "type": "function"
    },
    {
      "inputs": [
        {
          "internalType": "uint256",
          "name": "",
          "type": "uint256"
        }
      ],
      "name": "walletLists",
      "outputs": [
        {
          "internalType": "address",
          "name": "",
          "type": "address"
        }
      ],
      "stateMutability": "view",
      "type": "function"
    },
    {
      "inputs": [],
      "name": "whiteList",
      "outputs": [
        {
          "internalType": "uint256",
          "name": "",
          "type": "uint256"
        }
      ],
      "stateMutability": "view",
      "type": "function"
    },
    {
      "inputs": [],
      "name": "whitelistMerkleRoot",
      "outputs": [
        {
          "internalType": "bytes32",
          "name": "",
          "type": "bytes32"
        }
      ],
      "stateMutability": "view",
      "type": "function"
    },
    {
      "stateMutability": "payable",
      "type": "receive"
    }
  ],
  "bytecode": "0x60806040526040518060400160405280600581526020017f2e6a736f6e0000000000000000000000000000000000000000000000000000008152506010908051906020019062000051929190620006d2565b50602360115560196012556122b8601355601480556001601560006101000a81548160ff02191690831515021790555060b260185561012c6019556101f4601a553480156200009f57600080fd5b5060405162006a1f38038062006a1f8339818101604052810190620000c591906200098a565b82826040518060400160405280600581526020017f50616e64610000000000000000000000000000000000000000000000000000008152506040518060400160405280600481526020017f5b50505d0000000000000000000000000000000000000000000000000000000081525081600090805190602001906200014b929190620006d2565b50806001908051906020019062000164929190620006d2565b5050508051825114620001ae576040517f08c379a0000000000000000000000000000000000000000000000000000000008152600401620001a59062000bd6565b60405180910390fd5b6000825111620001f5576040517f08c379a0000000000000000000000000000000000000000000000000000000008152600401620001ec9062000c1a565b60405180910390fd5b60005b825181101562000264576200024e8382815181106200021c576200021b62000f15565b5b60200260200101518383815181106200023a576200023962000f15565b5b6020026020010151620002e360201b60201c565b80806200025b9062000e69565b915050620001f8565b505050620002876200027b6200051d60201b60201c565b6200052560201b60201c565b6200029884620005eb60201b60201c565b80601760006101000a81548173ffffffffffffffffffffffffffffffffffffffff021916908373ffffffffffffffffffffffffffffffffffffffff1602179055505050505062001139565b600073ffffffffffffffffffffffffffffffffffffffff168273ffffffffffffffffffffffffffffffffffffffff16141562000356576040517f08c379a00000000000000000000000000000000000000000000000000000000081526004016200034d9062000b92565b60405180910390fd5b600081116200039c576040517f08c379a0000000000000000000000000000000000000000000000000000000008152600401620003939062000c3c565b60405180910390fd5b6000600860008473ffffffffffffffffffffffffffffffffffffffff1673ffffffffffffffffffffffffffffffffffffffff168152602001908152602001600020541462000421576040517f08c379a0000000000000000000000000000000000000000000000000000000008152600401620004189062000bf8565b60405180910390fd5b600a829080600181540180825580915050600190039060005260206000200160009091909190916101000a81548173ffffffffffffffffffffffffffffffffffffffff021916908373ffffffffffffffffffffffffffffffffffffffff16021790555080600860008473ffffffffffffffffffffffffffffffffffffffff1673ffffffffffffffffffffffffffffffffffffffff1681526020019081526020016000208190555080600654620004d8919062000d2c565b6006819055507f40c340f65e17194d14ddddb073d3c9f888e3cb52b5aae0c6c7706b4fbc905fac82826040516200051192919062000b65565b60405180910390a15050565b600033905090565b6000600d60009054906101000a900473ffffffffffffffffffffffffffffffffffffffff16905081600d60006101000a81548173ffffffffffffffffffffffffffffffffffffffff021916908373ffffffffffffffffffffffffffffffffffffffff1602179055508173ffffffffffffffffffffffffffffffffffffffff168173ffffffffffffffffffffffffffffffffffffffff167f8be0079c531659141344cd1fd0a4f28419497f9722a3daafe3b4186f6b6457e060405160405180910390a35050565b620005fb6200061760201b60201c565b80600f908051906020019062000613929190620006d2565b5050565b620006276200051d60201b60201c565b73ffffffffffffffffffffffffffffffffffffffff166200064d620006a860201b60201c565b73ffffffffffffffffffffffffffffffffffffffff1614620006a6576040517f08c379a00000000000000000000000000000000000000000000000000000000081526004016200069d9062000bb4565b60405180910390fd5b565b6000600d60009054906101000a900473ffffffffffffffffffffffffffffffffffffffff16905090565b828054620006e09062000dfd565b90600052602060002090601f01602090048101928262000704576000855562000750565b82601f106200071f57805160ff191683800117855562000750565b8280016001018555821562000750579182015b828111156200074f57825182559160200191906001019062000732565b5b5090506200075f919062000763565b5090565b5b808211156200077e57600081600090555060010162000764565b5090565b600062000799620007938462000c87565b62000c5e565b90508083825260208201905082856020860282011115620007bf57620007be62000f78565b5b60005b85811015620007f35781620007d88882620008c3565b845260208401935060208301925050600181019050620007c2565b5050509392505050565b6000620008146200080e8462000cb6565b62000c5e565b905080838252602082019050828560208602820111156200083a576200083962000f78565b5b60005b858110156200086e578162000853888262000973565b8452602084019350602083019250506001810190506200083d565b5050509392505050565b60006200088f620008898462000ce5565b62000c5e565b905082815260208101848484011115620008ae57620008ad62000f7d565b5b620008bb84828562000dc7565b509392505050565b600081519050620008d48162001105565b92915050565b600082601f830112620008f257620008f162000f73565b5b81516200090484826020860162000782565b91505092915050565b600082601f83011262000925576200092462000f73565b5b815162000937848260208601620007fd565b91505092915050565b600082601f83011262000958576200095762000f73565b5b81516200096a84826020860162000878565b91505092915050565b60008151905062000984816200111f565b92915050565b60008060008060808587031215620009a757620009a662000f87565b5b600085015167ffffffffffffffff811115620009c857620009c762000f82565b5b620009d68782880162000940565b945050602085015167ffffffffffffffff811115620009fa57620009f962000f82565b5b62000a0887828801620008da565b935050604085015167ffffffffffffffff81111562000a2c5762000a2b62000f82565b5b62000a3a878288016200090d565b925050606062000a4d87828801620008c3565b91505092959194509250565b62000a648162000d89565b82525050565b600062000a79602c8362000d1b565b915062000a868262000f9d565b604082019050919050565b600062000aa060208362000d1b565b915062000aad8262000fec565b602082019050919050565b600062000ac760328362000d1b565b915062000ad48262001015565b604082019050919050565b600062000aee602b8362000d1b565b915062000afb8262001064565b604082019050919050565b600062000b15601a8362000d1b565b915062000b2282620010b3565b602082019050919050565b600062000b3c601d8362000d1b565b915062000b4982620010dc565b602082019050919050565b62000b5f8162000dbd565b82525050565b600060408201905062000b7c600083018562000a59565b62000b8b602083018462000b54565b9392505050565b6000602082019050818103600083015262000bad8162000a6a565b9050919050565b6000602082019050818103600083015262000bcf8162000a91565b9050919050565b6000602082019050818103600083015262000bf18162000ab8565b9050919050565b6000602082019050818103600083015262000c138162000adf565b9050919050565b6000602082019050818103600083015262000c358162000b06565b9050919050565b6000602082019050818103600083015262000c578162000b2d565b9050919050565b600062000c6a62000c7d565b905062000c78828262000e33565b919050565b6000604051905090565b600067ffffffffffffffff82111562000ca55762000ca462000f44565b5b602082029050602081019050919050565b600067ffffffffffffffff82111562000cd45762000cd362000f44565b5b602082029050602081019050919050565b600067ffffffffffffffff82111562000d035762000d0262000f44565b5b62000d0e8262000f8c565b9050602081019050919050565b600082825260208201905092915050565b600062000d398262000dbd565b915062000d468362000dbd565b9250827fffffffffffffffffffffffffffffffffffffffffffffffffffffffffffffffff0382111562000d7e5762000d7d62000eb7565b5b828201905092915050565b600062000d968262000d9d565b9050919050565b600073ffffffffffffffffffffffffffffffffffffffff82169050919050565b6000819050919050565b60005b8381101562000de757808201518184015260208101905062000dca565b8381111562000df7576000848401525b50505050565b6000600282049050600182168062000e1657607f821691505b6020821081141562000e2d5762000e2c62000ee6565b5b50919050565b62000e3e8262000f8c565b810181811067ffffffffffffffff8211171562000e605762000e5f62000f44565b5b80604052505050565b600062000e768262000dbd565b91507fffffffffffffffffffffffffffffffffffffffffffffffffffffffffffffffff82141562000eac5762000eab62000eb7565b5b600182019050919050565b7f4e487b7100000000000000000000000000000000000000000000000000000000600052601160045260246000fd5b7f4e487b7100000000000000000000000000000000000000000000000000000000600052602260045260246000fd5b7f4e487b7100000000000000000000000000000000000000000000000000000000600052603260045260246000fd5b7f4e487b7100000000000000000000000000000000000000000000000000000000600052604160045260246000fd5b600080fd5b600080fd5b600080fd5b600080fd5b600080fd5b6000601f19601f8301169050919050565b7f5061796d656e7453706c69747465723a206163636f756e74206973207468652060008201527f7a65726f20616464726573730000000000000000000000000000000000000000602082015250565b7f4f776e61626c653a2063616c6c6572206973206e6f7420746865206f776e6572600082015250565b7f5061796d656e7453706c69747465723a2070617965657320616e64207368617260008201527f6573206c656e677468206d69736d617463680000000000000000000000000000602082015250565b7f5061796d656e7453706c69747465723a206163636f756e7420616c726561647960008201527f2068617320736861726573000000000000000000000000000000000000000000602082015250565b7f5061796d656e7453706c69747465723a206e6f20706179656573000000000000600082015250565b7f5061796d656e7453706c69747465723a20736861726573206172652030000000600082015250565b620011108162000d89565b81146200111c57600080fd5b50565b6200112a8162000dbd565b81146200113657600080fd5b50565b6158d680620011496000396000f3fe60806040526004361061031e5760003560e01c806370a08231116101ab578063b88d4fde116100f7578063d5abeb0111610095578063df70018e1161006f578063df70018e14610c4d578063e33b7de314610c8a578063e985e9c514610cb5578063f2fde38b14610cf257610365565b8063d5abeb0114610bbc578063d79779b214610be7578063da3ef23f14610c2457610365565b8063c6682862116100d1578063c668286214610aee578063c87b56dd14610b19578063c9dcf38514610b56578063ce7c2ac214610b7f57610365565b8063b88d4fde14610a5f578063bd32fb6614610a88578063c45ac05014610ab157610365565b80639852595c11610164578063a3f8eace1161013e578063a3f8eace146109b0578063a6d612f9146109ed578063aa98e0c614610a09578063b056621514610a3457610365565b80639852595c1461092e578063a0712d681461096b578063a22cb4651461098757610365565b806370a082311461081e578063715018a61461085b5780637f00c7a6146108725780638b83209b1461089b5780638da5cb5b146108d857806395d89b411461090357610365565b80633544a8641161026a57806348b75044116102235780635b2956ee116101fd5780635b2956ee1461074e5780635c975abb1461078b5780636352211e146107b65780636df6e33a146107f357610365565b806348b75044146106e55780634b63f6451461070e57806355f804b31461072557610365565b80633544a864146105c157806337bae7ca146105ec5780633a98ef39146106295780633ee0638c14610654578063406072a91461067f57806342842e0e146106bc57610365565b806313faede6116102d7578063239c70ae116102b1578063239c70ae1461051b57806323b872dd146105465780632799459d1461056f5780632f1528951461059857610365565b806313faede61461048a57806316aafd6a146104b557806319165587146104f257610365565b806301ffc9a71461036a57806302329a29146103a757806306fdde03146103d0578063081812fc146103fb578063095ea7b3146104385780630aee33681461046157610365565b36610365577f6ef95f06320e7a25a04a175ca677b7052bdd97131872c2192525a629f51be77061034c610d1b565b3460405161035b92919061476d565b60405180910390a1005b600080fd5b34801561037657600080fd5b50610391600480360381019061038c9190613f47565b610d23565b60405161039e9190614796565b60405180910390f35b3480156103b357600080fd5b506103ce60048036038101906103c99190613ec0565b610e05565b005b3480156103dc57600080fd5b506103e5610e2a565b6040516103f291906147e7565b60405180910390f35b34801561040757600080fd5b50610422600480360381019061041d9190614084565b610ebc565b60405161042f91906146dd565b60405180910390f35b34801561044457600080fd5b5061045f600480360381019061045a9190613dd7565b610f02565b005b34801561046d57600080fd5b5061048860048036038101906104839190614084565b61101a565b005b34801561049657600080fd5b5061049f61110c565b6040516104ac91906147cc565b60405180910390f35b3480156104c157600080fd5b506104dc60048036038101906104d79190614084565b611112565b6040516104e991906146dd565b60405180910390f35b3480156104fe57600080fd5b5061051960048036038101906105149190613c54565b611151565b005b34801561052757600080fd5b506105306112d1565b60405161053d9190614ae9565b60405180910390f35b34801561055257600080fd5b5061056d60048036038101906105689190613cc1565b6112d7565b005b34801561057b57600080fd5b506105966004803603810190610591919061400e565b611337565b005b3480156105a457600080fd5b506105bf60048036038101906105ba9190614084565b611349565b005b3480156105cd57600080fd5b506105d6611441565b6040516105e39190614ae9565b60405180910390f35b3480156105f857600080fd5b50610613600480360381019061060e9190613c27565b611447565b6040516106209190614ae9565b60405180910390f35b34801561063557600080fd5b5061063e61145f565b60405161064b9190614ae9565b60405180910390f35b34801561066057600080fd5b50610669611469565b60405161067691906147cc565b60405180910390f35b34801561068b57600080fd5b506106a660048036038101906106a19190613fce565b61146f565b6040516106b39190614ae9565b60405180910390f35b3480156106c857600080fd5b506106e360048036038101906106de9190613cc1565b6114f6565b005b3480156106f157600080fd5b5061070c60048036038101906107079190613fce565b611516565b005b34801561071a57600080fd5b5061072361172a565b005b34801561073157600080fd5b5061074c6004803603810190610747919061403b565b611734565b005b34801561075a57600080fd5b5061077560048036038101906107709190614084565b611756565b6040516107829190614ae9565b60405180910390f35b34801561079757600080fd5b506107a061177a565b6040516107ad9190614796565b60405180910390f35b3480156107c257600080fd5b506107dd60048036038101906107d89190614084565b61178d565b6040516107ea91906146dd565b60405180910390f35b3480156107ff57600080fd5b50610808611814565b6040516108159190614ae9565b60405180910390f35b34801561082a57600080fd5b5061084560048036038101906108409190613c27565b61181a565b6040516108529190614ae9565b60405180910390f35b34801561086757600080fd5b506108706118d2565b005b34801561087e57600080fd5b5061089960048036038101906108949190614084565b6118e6565b005b3480156108a757600080fd5b506108c260048036038101906108bd9190614084565b6118f8565b6040516108cf91906146dd565b60405180910390f35b3480156108e457600080fd5b506108ed611940565b6040516108fa91906146dd565b60405180910390f35b34801561090f57600080fd5b5061091861196a565b60405161092591906147e7565b60405180910390f35b34801561093a57600080fd5b5061095560048036038101906109509190613c27565b6119fc565b6040516109629190614ae9565b60405180910390f35b61098560048036038101906109809190614084565b611a45565b005b34801561099357600080fd5b506109ae60048036038101906109a99190613d97565b611b04565b005b3480156109bc57600080fd5b506109d760048036038101906109d29190613c27565b611b1a565b6040516109e49190614ae9565b60405180910390f35b610a076004803603810190610a029190613e17565b611b4d565b005b348015610a1557600080fd5b50610a1e611cc5565b604051610a2b91906147b1565b60405180910390f35b348015610a4057600080fd5b50610a49611ccb565b604051610a569190614ae9565b60405180910390f35b348015610a6b57600080fd5b50610a866004803603810190610a819190613d14565b611cd1565b005b348015610a9457600080fd5b50610aaf6004803603810190610aaa9190613f1a565b611d33565b005b348015610abd57600080fd5b50610ad86004803603810190610ad39190613fce565b611d45565b604051610ae59190614ae9565b60405180910390f35b348015610afa57600080fd5b50610b03611e03565b604051610b1091906147e7565b60405180910390f35b348015610b2557600080fd5b50610b406004803603810190610b3b9190614084565b611e91565b604051610b4d91906147e7565b60405180910390f35b348015610b6257600080fd5b50610b7d6004803603810190610b789190613e77565b611f3b565b005b348015610b8b57600080fd5b50610ba66004803603810190610ba19190613c27565b611ff3565b604051610bb39190614ae9565b60405180910390f35b348015610bc857600080fd5b50610bd161203c565b604051610bde9190614ae9565b60405180910390f35b348015610bf357600080fd5b50610c0e6004803603810190610c099190613fa1565b612042565b604051610c1b9190614ae9565b60405180910390f35b348015610c3057600080fd5b50610c4b6004803603810190610c46919061403b565b61208b565b005b348015610c5957600080fd5b50610c746004803603810190610c6f919061400e565b6120ad565b604051610c819190614ae9565b60405180910390f35b348015610c9657600080fd5b50610c9f61218e565b604051610cac9190614ae9565b60405180910390f35b348015610cc157600080fd5b50610cdc6004803603810190610cd79190613c81565b612198565b604051610ce99190614796565b60405180910390f35b348015610cfe57600080fd5b50610d196004803603810190610d149190613c27565b61222c565b005b600033905090565b60007f80ac58cd000000000000000000000000000000000000000000000000000000007bffffffffffffffffffffffffffffffffffffffffffffffffffffffff1916827bffffffffffffffffffffffffffffffffffffffffffffffffffffffff19161480610dee57507f5b5e139f000000000000000000000000000000000000000000000000000000007bffffffffffffffffffffffffffffffffffffffffffffffffffffffff1916827bffffffffffffffffffffffffffffffffffffffffffffffffffffffff1916145b80610dfe5750610dfd826122b0565b5b9050919050565b610e0d61231a565b80601560006101000a81548160ff02191690831515021790555050565b606060008054610e3990615014565b80601f0160208091040260200160405190810160405280929190818152602001828054610e6590615014565b8015610eb25780601f10610e8757610100808354040283529160200191610eb2565b820191906000526020600020905b815481529060010190602001808311610e9557829003601f168201915b5050505050905090565b6000610ec782612398565b6004600083815260200190815260200160002060009054906101000a900473ffffffffffffffffffffffffffffffffffffffff169050919050565b6000610f0d8261178d565b90508073ffffffffffffffffffffffffffffffffffffffff168373ffffffffffffffffffffffffffffffffffffffff161415610f7e576040517f08c379a0000000000000000000000000000000000000000000000000000000008152600401610f7590614a69565b60405180910390fd5b8073ffffffffffffffffffffffffffffffffffffffff16610f9d610d1b565b73ffffffffffffffffffffffffffffffffffffffff161480610fcc5750610fcb81610fc6610d1b565b612198565b5b61100b576040517f08c379a000000000000000000000000000000000000000000000000000000000815260040161100290614a89565b60405180910390fd5b61101583836123e3565b505050565b61102261231a565b600060185411611067576040517f08c379a000000000000000000000000000000000000000000000000000000000815260040161105e90614809565b60405180910390fd5b60135481611075600e61249c565b61107f9190614c1a565b111561108a57600080fd5b6000600190505b818111611108576110a2600e6124aa565b60006110ae600e61249c565b9050601860008154809291906110c390614fea565b91905055506110f4601b60009054906101000a900473ffffffffffffffffffffffffffffffffffffffff16826124c0565b50808061110090615077565b915050611091565b5050565b60115481565b601f818154811061112257600080fd5b906000526020600020016000915054906101000a900473ffffffffffffffffffffffffffffffffffffffff1681565b6000600860008373ffffffffffffffffffffffffffffffffffffffff1673ffffffffffffffffffffffffffffffffffffffff16815260200190815260200160002054116111d3576040517f08c379a00000000000000000000000000000000000000000000000000000000081526004016111ca906148c9565b60405180910390fd5b60006111de82611b1a565b90506000811415611224576040517f08c379a000000000000000000000000000000000000000000000000000000000815260040161121b90614989565b60405180910390fd5b80600760008282546112369190614c1a565b9250508190555080600960008473ffffffffffffffffffffffffffffffffffffffff1673ffffffffffffffffffffffffffffffffffffffff1681526020019081526020016000206000828254019250508190555061129482826124de565b7fdf20fd1e76bc69d672e4814fafb2c449bba3a5369d8359adf9e05e6fde87b05682826040516112c59291906146f8565b60405180910390a15050565b60145481565b6112e86112e2610d1b565b826125d2565b611327576040517f08c379a000000000000000000000000000000000000000000000000000000000815260040161131e90614829565b60405180910390fd5b611332838383612667565b505050565b61133f61231a565b8060118190555050565b61135161231a565b600060195411611396576040517f08c379a000000000000000000000000000000000000000000000000000000000815260040161138d90614809565b60405180910390fd5b60006113a2600e61249c565b905060135482826113b39190614c1a565b11156113be57600080fd5b6000600190505b82811161143c576113d6600e6124aa565b60006113e2600e61249c565b9050601960008154809291906113f790614fea565b9190505550611428601b60009054906101000a900473ffffffffffffffffffffffffffffffffffffffff16826124c0565b50808061143490615077565b9150506113c5565b505050565b601a5481565b601e6020528060005260406000206000915090505481565b6000600654905090565b60125481565b6000600c60008473ffffffffffffffffffffffffffffffffffffffff1673ffffffffffffffffffffffffffffffffffffffff16815260200190815260200160002060008373ffffffffffffffffffffffffffffffffffffffff1673ffffffffffffffffffffffffffffffffffffffff16815260200190815260200160002054905092915050565b61151183838360405180602001604052806000815250611cd1565b505050565b6000600860008373ffffffffffffffffffffffffffffffffffffffff1673ffffffffffffffffffffffffffffffffffffffff1681526020019081526020016000205411611598576040517f08c379a000000000000000000000000000000000000000000000000000000000815260040161158f906148c9565b60405180910390fd5b60006115a48383611d45565b905060008114156115ea576040517f08c379a00000000000000000000000000000000000000000000000000000000081526004016115e190614989565b60405180910390fd5b80600b60008573ffffffffffffffffffffffffffffffffffffffff1673ffffffffffffffffffffffffffffffffffffffff16815260200190815260200160002060008282546116399190614c1a565b9250508190555080600c60008573ffffffffffffffffffffffffffffffffffffffff1673ffffffffffffffffffffffffffffffffffffffff16815260200190815260200160002060008473ffffffffffffffffffffffffffffffffffffffff1673ffffffffffffffffffffffffffffffffffffffff168152602001908152602001600020600082825401925050819055506116d5838383612961565b8273ffffffffffffffffffffffffffffffffffffffff167f3be5b7a71e84ed12875d241991c70855ac5817d847039e17a9d895c1ceb0f18a838360405161171d92919061476d565b60405180910390a2505050565b61173261231a565b565b61173c61231a565b80600f908051906020019061175292919061389f565b5050565b6016818154811061176657600080fd5b906000526020600020016000915090505481565b601560009054906101000a900460ff1681565b600080611799836129e7565b9050600073ffffffffffffffffffffffffffffffffffffffff168173ffffffffffffffffffffffffffffffffffffffff16141561180b576040517f08c379a000000000000000000000000000000000000000000000000000000000815260040161180290614a49565b60405180910390fd5b80915050919050565b60185481565b60008073ffffffffffffffffffffffffffffffffffffffff168273ffffffffffffffffffffffffffffffffffffffff16141561188b576040517f08c379a0000000000000000000000000000000000000000000000000000000008152600401611882906149c9565b60405180910390fd5b600360008373ffffffffffffffffffffffffffffffffffffffff1673ffffffffffffffffffffffffffffffffffffffff168152602001908152602001600020549050919050565b6118da61231a565b6118e46000612a24565b565b6118ee61231a565b8060148190555050565b6000600a828154811061190e5761190d615171565b5b9060005260206000200160009054906101000a900473ffffffffffffffffffffffffffffffffffffffff169050919050565b6000600d60009054906101000a900473ffffffffffffffffffffffffffffffffffffffff16905090565b60606001805461197990615014565b80601f01602080910402602001604051908101604052809291908181526020018280546119a590615014565b80156119f25780601f106119c7576101008083540402835291602001916119f2565b820191906000526020600020905b8154815290600101906020018083116119d557829003601f168201915b5050505050905090565b6000600960008373ffffffffffffffffffffffffffffffffffffffff1673ffffffffffffffffffffffffffffffffffffffff168152602001908152602001600020549050919050565b601560009054906101000a900460ff1615611a5f57600080fd5b600081118015611a7157506014548111155b611a7a57600080fd5b60135481611a88600e61249c565b611a929190614c1a565b1115611a9d57600080fd5b8066038d7ea4c68000611ab09190614e22565b341015611abc57600080fd5b6000600190505b818111611b0057611ad4600e6124aa565b6000611ae0600e61249c565b9050611aec33826124c0565b508080611af890615077565b915050611ac3565b5050565b611b16611b0f610d1b565b8383612aea565b5050565b600080611b2561218e565b47611b309190614c1a565b9050611b458382611b40866119fc565b612c57565b915050919050565b8282601d54611bc4838380806020026020016040519081016040528093929190818152602001838360200280828437600081840152601f19601f820116905080830192505050505050508233604051602001611ba99190614665565b60405160208183030381529060405280519060200120612cc5565b611c03576040517f08c379a0000000000000000000000000000000000000000000000000000000008152600401611bfa906149a9565b60405180910390fd5b60135484611c11600e61249c565b611c1b9190614c1a565b1115611c2657600080fd5b611c316012546120ad565b341015611c3d57600080fd5b601a5484611c4b600e61249c565b611c559190614c1a565b1115611c6057600080fd5b611c6a600e6124aa565b6000611c76600e61249c565b90506000600190505b858111611cbb57611c9033836124c0565b601a6000815480929190611ca390614fea565b91905055508080611cb390615077565b915050611c7f565b5050505050505050565b601d5481565b60195481565b611ce2611cdc610d1b565b836125d2565b611d21576040517f08c379a0000000000000000000000000000000000000000000000000000000008152600401611d1890614829565b60405180910390fd5b611d2d84848484612cdc565b50505050565b611d3b61231a565b80601d8190555050565b600080611d5184612042565b8473ffffffffffffffffffffffffffffffffffffffff166370a08231306040518263ffffffff1660e01b8152600401611d8a91906146dd565b60206040518083038186803b158015611da257600080fd5b505afa158015611db6573d6000803e3d6000fd5b505050506040513d601f19601f82011682018060405250810190611dda91906140b1565b611de49190614c1a565b9050611dfa8382611df5878761146f565b612c57565b91505092915050565b60108054611e1090615014565b80601f0160208091040260200160405190810160405280929190818152602001828054611e3c90615014565b8015611e895780601f10611e5e57610100808354040283529160200191611e89565b820191906000526020600020905b815481529060010190602001808311611e6c57829003601f168201915b505050505081565b6060611e9c82612d38565b611edb576040517f08c379a0000000000000000000000000000000000000000000000000000000008152600401611ed290614a29565b60405180910390fd5b6000611ee5612d79565b90506000815111611f055760405180602001604052806000815250611f33565b80611f0f84612e0b565b6010604051602001611f2393929190614697565b6040516020818303038152906040525b915050919050565b611f4361231a565b600080600090505b600a8111611fee57611f76838281518110611f6957611f68615171565b5b602002602001015161178d565b9150601f829080600181540180825580915050600190039060005260206000200160009091909190916101000a81548173ffffffffffffffffffffffffffffffffffffffff021916908373ffffffffffffffffffffffffffffffffffffffff1602179055508080611fe690615077565b915050611f4b565b505050565b6000600860008373ffffffffffffffffffffffffffffffffffffffff1673ffffffffffffffffffffffffffffffffffffffff168152602001908152602001600020549050919050565b60135481565b6000600b60008373ffffffffffffffffffffffffffffffffffffffff1673ffffffffffffffffffffffffffffffffffffffff168152602001908152602001600020549050919050565b61209361231a565b80601090805190602001906120a992919061389f565b5050565b600080600080600080601760009054906101000a900473ffffffffffffffffffffffffffffffffffffffff1673ffffffffffffffffffffffffffffffffffffffff1663feaf968c6040518163ffffffff1660e01b815260040160a06040518083038186803b15801561211e57600080fd5b505afa158015612132573d6000803e3d6000fd5b505050506040513d601f19601f8201168201806040525081019061215691906140de565b94509450945094509450836a52b7d2dcc80cd2e4000000886121789190614d0b565b6121829190614c70565b95505050505050919050565b6000600754905090565b6000600560008473ffffffffffffffffffffffffffffffffffffffff1673ffffffffffffffffffffffffffffffffffffffff16815260200190815260200160002060008373ffffffffffffffffffffffffffffffffffffffff1673ffffffffffffffffffffffffffffffffffffffff16815260200190815260200160002060009054906101000a900460ff16905092915050565b61223461231a565b600073ffffffffffffffffffffffffffffffffffffffff168173ffffffffffffffffffffffffffffffffffffffff1614156122a4576040517f08c379a000000000000000000000000000000000000000000000000000000000815260040161229b90614869565b60405180910390fd5b6122ad81612a24565b50565b60007f01ffc9a7000000000000000000000000000000000000000000000000000000007bffffffffffffffffffffffffffffffffffffffffffffffffffffffff1916827bffffffffffffffffffffffffffffffffffffffffffffffffffffffff1916149050919050565b612322610d1b565b73ffffffffffffffffffffffffffffffffffffffff16612340611940565b73ffffffffffffffffffffffffffffffffffffffff1614612396576040517f08c379a000000000000000000000000000000000000000000000000000000000815260040161238d90614a09565b60405180910390fd5b565b6123a181612d38565b6123e0576040517f08c379a00000000000000000000000000000000000000000000000000000000081526004016123d790614a49565b60405180910390fd5b50565b816004600083815260200190815260200160002060006101000a81548173ffffffffffffffffffffffffffffffffffffffff021916908373ffffffffffffffffffffffffffffffffffffffff160217905550808273ffffffffffffffffffffffffffffffffffffffff166124568361178d565b73ffffffffffffffffffffffffffffffffffffffff167f8c5be1e5ebec7d5bd14f71427d1e84f3dd0314c0f7b2291e5b200ac8c7c3b92560405160405180910390a45050565b600081600001549050919050565b6001816000016000828254019250508190555050565b6124da828260405180602001604052806000815250612ee3565b5050565b80471015612521576040517f08c379a000000000000000000000000000000000000000000000000000000000815260040161251890614949565b60405180910390fd5b60008273ffffffffffffffffffffffffffffffffffffffff1682604051612547906146c8565b60006040518083038185875af1925050503d8060008114612584576040519150601f19603f3d011682016040523d82523d6000602084013e612589565b606091505b50509050806125cd576040517f08c379a00000000000000000000000000000000000000000000000000000000081526004016125c490614929565b60405180910390fd5b505050565b6000806125de8361178d565b90508073ffffffffffffffffffffffffffffffffffffffff168473ffffffffffffffffffffffffffffffffffffffff161480612620575061261f8185612198565b5b8061265e57508373ffffffffffffffffffffffffffffffffffffffff1661264684610ebc565b73ffffffffffffffffffffffffffffffffffffffff16145b91505092915050565b8273ffffffffffffffffffffffffffffffffffffffff166126878261178d565b73ffffffffffffffffffffffffffffffffffffffff16146126dd576040517f08c379a00000000000000000000000000000000000000000000000000000000081526004016126d490614889565b60405180910390fd5b600073ffffffffffffffffffffffffffffffffffffffff168273ffffffffffffffffffffffffffffffffffffffff16141561274d576040517f08c379a0000000000000000000000000000000000000000000000000000000008152600401612744906148e9565b60405180910390fd5b61275a8383836001612f3e565b8273ffffffffffffffffffffffffffffffffffffffff1661277a8261178d565b73ffffffffffffffffffffffffffffffffffffffff16146127d0576040517f08c379a00000000000000000000000000000000000000000000000000000000081526004016127c790614889565b60405180910390fd5b6004600082815260200190815260200160002060006101000a81549073ffffffffffffffffffffffffffffffffffffffff02191690556001600360008573ffffffffffffffffffffffffffffffffffffffff1673ffffffffffffffffffffffffffffffffffffffff168152602001908152602001600020600082825403925050819055506001600360008473ffffffffffffffffffffffffffffffffffffffff1673ffffffffffffffffffffffffffffffffffffffff16815260200190815260200160002060008282540192505081905550816002600083815260200190815260200160002060006101000a81548173ffffffffffffffffffffffffffffffffffffffff021916908373ffffffffffffffffffffffffffffffffffffffff160217905550808273ffffffffffffffffffffffffffffffffffffffff168473ffffffffffffffffffffffffffffffffffffffff167fddf252ad1be2c89b69c2b068fc378daa952ba7f163c4a11628f55a4df523b3ef60405160405180910390a461295c8383836001613064565b505050565b6129e28363a9059cbb60e01b848460405160240161298092919061476d565b604051602081830303815290604052907bffffffffffffffffffffffffffffffffffffffffffffffffffffffff19166020820180517bffffffffffffffffffffffffffffffffffffffffffffffffffffffff838183161783525050505061306a565b505050565b60006002600083815260200190815260200160002060009054906101000a900473ffffffffffffffffffffffffffffffffffffffff169050919050565b6000600d60009054906101000a900473ffffffffffffffffffffffffffffffffffffffff16905081600d60006101000a81548173ffffffffffffffffffffffffffffffffffffffff021916908373ffffffffffffffffffffffffffffffffffffffff1602179055508173ffffffffffffffffffffffffffffffffffffffff168173ffffffffffffffffffffffffffffffffffffffff167f8be0079c531659141344cd1fd0a4f28419497f9722a3daafe3b4186f6b6457e060405160405180910390a35050565b8173ffffffffffffffffffffffffffffffffffffffff168373ffffffffffffffffffffffffffffffffffffffff161415612b59576040517f08c379a0000000000000000000000000000000000000000000000000000000008152600401612b5090614909565b60405180910390fd5b80600560008573ffffffffffffffffffffffffffffffffffffffff1673ffffffffffffffffffffffffffffffffffffffff16815260200190815260200160002060008473ffffffffffffffffffffffffffffffffffffffff1673ffffffffffffffffffffffffffffffffffffffff16815260200190815260200160002060006101000a81548160ff0219169083151502179055508173ffffffffffffffffffffffffffffffffffffffff168373ffffffffffffffffffffffffffffffffffffffff167f17307eab39ab6107e8899845ad3d59bd9653f200f220920489ca2b5937696c3183604051612c4a9190614796565b60405180910390a3505050565b600081600654600860008773ffffffffffffffffffffffffffffffffffffffff1673ffffffffffffffffffffffffffffffffffffffff1681526020019081526020016000205485612ca89190614e22565b612cb29190614cda565b612cbc9190614e7c565b90509392505050565b600082612cd28584613131565b1490509392505050565b612ce7848484612667565b612cf384848484613187565b612d32576040517f08c379a0000000000000000000000000000000000000000000000000000000008152600401612d2990614849565b60405180910390fd5b50505050565b60008073ffffffffffffffffffffffffffffffffffffffff16612d5a836129e7565b73ffffffffffffffffffffffffffffffffffffffff1614159050919050565b6060600f8054612d8890615014565b80601f0160208091040260200160405190810160405280929190818152602001828054612db490615014565b8015612e015780601f10612dd657610100808354040283529160200191612e01565b820191906000526020600020905b815481529060010190602001808311612de457829003601f168201915b5050505050905090565b606060006001612e1a8461331e565b01905060008167ffffffffffffffff811115612e3957612e386151a0565b5b6040519080825280601f01601f191660200182016040528015612e6b5781602001600182028036833780820191505090505b509050600082602001820190505b600115612ed8578080600190039150507f3031323334353637383961626364656600000000000000000000000000000000600a86061a8153600a8581612ec257612ec1615113565b5b0494506000851415612ed357612ed8565b612e79565b819350505050919050565b612eed8383613471565b612efa6000848484613187565b612f39576040517f08c379a0000000000000000000000000000000000000000000000000000000008152600401612f3090614849565b60405180910390fd5b505050565b600181111561305e57600073ffffffffffffffffffffffffffffffffffffffff168473ffffffffffffffffffffffffffffffffffffffff1614612fd25780600360008673ffffffffffffffffffffffffffffffffffffffff1673ffffffffffffffffffffffffffffffffffffffff1681526020019081526020016000206000828254612fca9190614e7c565b925050819055505b600073ffffffffffffffffffffffffffffffffffffffff168373ffffffffffffffffffffffffffffffffffffffff161461305d5780600360008573ffffffffffffffffffffffffffffffffffffffff1673ffffffffffffffffffffffffffffffffffffffff16815260200190815260200160002060008282546130559190614c1a565b925050819055505b5b50505050565b50505050565b60006130cc826040518060400160405280602081526020017f5361666545524332303a206c6f772d6c6576656c2063616c6c206661696c65648152508573ffffffffffffffffffffffffffffffffffffffff1661368f9092919063ffffffff16565b905060008151111561312c57808060200190518101906130ec9190613eed565b61312b576040517f08c379a000000000000000000000000000000000000000000000000000000000815260040161312290614ac9565b60405180910390fd5b5b505050565b60008082905060005b845181101561317c576131678286838151811061315a57613159615171565b5b60200260200101516136a7565b9150808061317490615077565b91505061313a565b508091505092915050565b60006131a88473ffffffffffffffffffffffffffffffffffffffff166136d2565b15613311578373ffffffffffffffffffffffffffffffffffffffff1663150b7a026131d1610d1b565b8786866040518563ffffffff1660e01b81526004016131f39493929190614721565b602060405180830381600087803b15801561320d57600080fd5b505af192505050801561323e57506040513d601f19601f8201168201806040525081019061323b9190613f74565b60015b6132c1573d806000811461326e576040519150601f19603f3d011682016040523d82523d6000602084013e613273565b606091505b506000815114156132b9576040517f08c379a00000000000000000000000000000000000000000000000000000000081526004016132b090614849565b60405180910390fd5b805181602001fd5b63150b7a0260e01b7bffffffffffffffffffffffffffffffffffffffffffffffffffffffff1916817bffffffffffffffffffffffffffffffffffffffffffffffffffffffff191614915050613316565b600190505b949350505050565b600080600090507a184f03e93ff9f4daa797ed6e38ed64bf6a1f010000000000000000831061337c577a184f03e93ff9f4daa797ed6e38ed64bf6a1f010000000000000000838161337257613371615113565b5b0492506040810190505b6d04ee2d6d415b85acef810000000083106133b9576d04ee2d6d415b85acef810000000083816133af576133ae615113565b5b0492506020810190505b662386f26fc1000083106133e857662386f26fc1000083816133de576133dd615113565b5b0492506010810190505b6305f5e1008310613411576305f5e100838161340757613406615113565b5b0492506008810190505b612710831061343657612710838161342c5761342b615113565b5b0492506004810190505b60648310613459576064838161344f5761344e615113565b5b0492506002810190505b600a8310613468576001810190505b80915050919050565b600073ffffffffffffffffffffffffffffffffffffffff168273ffffffffffffffffffffffffffffffffffffffff1614156134e1576040517f08c379a00000000000000000000000000000000000000000000000000000000081526004016134d8906149e9565b60405180910390fd5b6134ea81612d38565b1561352a576040517f08c379a0000000000000000000000000000000000000000000000000000000008152600401613521906148a9565b60405180910390fd5b613538600083836001612f3e565b61354181612d38565b15613581576040517f08c379a0000000000000000000000000000000000000000000000000000000008152600401613578906148a9565b60405180910390fd5b6001600360008473ffffffffffffffffffffffffffffffffffffffff1673ffffffffffffffffffffffffffffffffffffffff16815260200190815260200160002060008282540192505081905550816002600083815260200190815260200160002060006101000a81548173ffffffffffffffffffffffffffffffffffffffff021916908373ffffffffffffffffffffffffffffffffffffffff160217905550808273ffffffffffffffffffffffffffffffffffffffff16600073ffffffffffffffffffffffffffffffffffffffff167fddf252ad1be2c89b69c2b068fc378daa952ba7f163c4a11628f55a4df523b3ef60405160405180910390a461368b600083836001613064565b5050565b606061369e84846000856136f5565b90509392505050565b60008183106136bf576136ba82846137c2565b6136ca565b6136c983836137c2565b5b905092915050565b6000808273ffffffffffffffffffffffffffffffffffffffff163b119050919050565b60608247101561373a576040517f08c379a000000000000000000000000000000000000000000000000000000000815260040161373190614969565b60405180910390fd5b6000808673ffffffffffffffffffffffffffffffffffffffff1685876040516137639190614680565b60006040518083038185875af1925050503d80600081146137a0576040519150601f19603f3d011682016040523d82523d6000602084013e6137a5565b606091505b50915091506137b6878383876137d9565b92505050949350505050565b600082600052816020526040600020905092915050565b6060831561383c57600083511415613834576137f4856136d2565b613833576040517f08c379a000000000000000000000000000000000000000000000000000000000815260040161382a90614aa9565b60405180910390fd5b5b829050613847565b613846838361384f565b5b949350505050565b6000825111156138625781518083602001fd5b806040517f08c379a000000000000000000000000000000000000000000000000000000000815260040161389691906147e7565b60405180910390fd5b8280546138ab90615014565b90600052602060002090601f0160209004810192826138cd5760008555613914565b82601f106138e657805160ff1916838001178555613914565b82800160010185558215613914579182015b828111156139135782518255916020019190600101906138f8565b5b5090506139219190613925565b5090565b5b8082111561393e576000816000905550600101613926565b5090565b600061395561395084614b29565b614b04565b90508083825260208201905082856020860282011115613978576139776151d9565b5b60005b858110156139a8578161398e8882613be8565b84526020840193506020830192505060018101905061397b565b5050509392505050565b60006139c56139c084614b55565b614b04565b9050828152602081018484840111156139e1576139e06151de565b5b6139ec848285614fa8565b509392505050565b6000613a07613a0284614b86565b614b04565b905082815260208101848484011115613a2357613a226151de565b5b613a2e848285614fa8565b509392505050565b600081359050613a45816157d1565b92915050565b600081359050613a5a816157e8565b92915050565b60008083601f840112613a7657613a756151d4565b5b8235905067ffffffffffffffff811115613a9357613a926151cf565b5b602083019150836020820283011115613aaf57613aae6151d9565b5b9250929050565b600082601f830112613acb57613aca6151d4565b5b8135613adb848260208601613942565b91505092915050565b600081359050613af3816157ff565b92915050565b600081519050613b08816157ff565b92915050565b600081359050613b1d81615816565b92915050565b600081359050613b328161582d565b92915050565b600081519050613b478161582d565b92915050565b600082601f830112613b6257613b616151d4565b5b8135613b728482602086016139b2565b91505092915050565b600081359050613b8a81615844565b92915050565b600081359050613b9f8161585b565b92915050565b600081519050613bb48161585b565b92915050565b600082601f830112613bcf57613bce6151d4565b5b8135613bdf8482602086016139f4565b91505092915050565b600081359050613bf781615872565b92915050565b600081519050613c0c81615872565b92915050565b600081519050613c2181615889565b92915050565b600060208284031215613c3d57613c3c6151e8565b5b6000613c4b84828501613a36565b91505092915050565b600060208284031215613c6a57613c696151e8565b5b6000613c7884828501613a4b565b91505092915050565b60008060408385031215613c9857613c976151e8565b5b6000613ca685828601613a36565b9250506020613cb785828601613a36565b9150509250929050565b600080600060608486031215613cda57613cd96151e8565b5b6000613ce886828701613a36565b9350506020613cf986828701613a36565b9250506040613d0a86828701613be8565b9150509250925092565b60008060008060808587031215613d2e57613d2d6151e8565b5b6000613d3c87828801613a36565b9450506020613d4d87828801613a36565b9350506040613d5e87828801613be8565b925050606085013567ffffffffffffffff811115613d7f57613d7e6151e3565b5b613d8b87828801613b4d565b91505092959194509250565b60008060408385031215613dae57613dad6151e8565b5b6000613dbc85828601613a36565b9250506020613dcd85828601613ae4565b9150509250929050565b60008060408385031215613dee57613ded6151e8565b5b6000613dfc85828601613a36565b9250506020613e0d85828601613be8565b9150509250929050565b600080600060408486031215613e3057613e2f6151e8565b5b600084013567ffffffffffffffff811115613e4e57613e4d6151e3565b5b613e5a86828701613a60565b93509350506020613e6d86828701613be8565b9150509250925092565b600060208284031215613e8d57613e8c6151e8565b5b600082013567ffffffffffffffff811115613eab57613eaa6151e3565b5b613eb784828501613ab6565b91505092915050565b600060208284031215613ed657613ed56151e8565b5b6000613ee484828501613ae4565b91505092915050565b600060208284031215613f0357613f026151e8565b5b6000613f1184828501613af9565b91505092915050565b600060208284031215613f3057613f2f6151e8565b5b6000613f3e84828501613b0e565b91505092915050565b600060208284031215613f5d57613f5c6151e8565b5b6000613f6b84828501613b23565b91505092915050565b600060208284031215613f8a57613f896151e8565b5b6000613f9884828501613b38565b91505092915050565b600060208284031215613fb757613fb66151e8565b5b6000613fc584828501613b7b565b91505092915050565b60008060408385031215613fe557613fe46151e8565b5b6000613ff385828601613b7b565b925050602061400485828601613a36565b9150509250929050565b600060208284031215614024576140236151e8565b5b600061403284828501613b90565b91505092915050565b600060208284031215614051576140506151e8565b5b600082013567ffffffffffffffff81111561406f5761406e6151e3565b5b61407b84828501613bba565b91505092915050565b60006020828403121561409a576140996151e8565b5b60006140a884828501613be8565b91505092915050565b6000602082840312156140c7576140c66151e8565b5b60006140d584828501613bfd565b91505092915050565b600080600080600060a086880312156140fa576140f96151e8565b5b600061410888828901613c12565b955050602061411988828901613ba5565b945050604061412a88828901613bfd565b935050606061413b88828901613bfd565b925050608061414c88828901613c12565b9150509295509295909350565b61416281614f72565b82525050565b61417181614eb0565b82525050565b61418861418382614eb0565b6150c0565b82525050565b61419781614ed4565b82525050565b6141a681614ee0565b82525050565b60006141b782614bcc565b6141c18185614be2565b93506141d1818560208601614fb7565b6141da816151ed565b840191505092915050565b60006141f082614bcc565b6141fa8185614bf3565b935061420a818560208601614fb7565b80840191505092915050565b61421f81614f28565b82525050565b600061423082614bd7565b61423a8185614bfe565b935061424a818560208601614fb7565b614253816151ed565b840191505092915050565b600061426982614bd7565b6142738185614c0f565b9350614283818560208601614fb7565b80840191505092915050565b6000815461429c81615014565b6142a68186614c0f565b945060018216600081146142c157600181146142d257614305565b60ff19831686528186019350614305565b6142db85614bb7565b60005b838110156142fd578154818901526001820191506020810190506142de565b838801955050505b50505092915050565b600061431b601283614bfe565b91506143268261520b565b602082019050919050565b600061433e602d83614bfe565b915061434982615234565b604082019050919050565b6000614361603283614bfe565b915061436c82615283565b604082019050919050565b6000614384602683614bfe565b915061438f826152d2565b604082019050919050565b60006143a7602583614bfe565b91506143b282615321565b604082019050919050565b60006143ca601c83614bfe565b91506143d582615370565b602082019050919050565b60006143ed602683614bfe565b91506143f882615399565b604082019050919050565b6000614410602483614bfe565b915061441b826153e8565b604082019050919050565b6000614433601983614bfe565b915061443e82615437565b602082019050919050565b6000614456603a83614bfe565b915061446182615460565b604082019050919050565b6000614479601d83614bfe565b9150614484826154af565b602082019050919050565b600061449c602683614bfe565b91506144a7826154d8565b604082019050919050565b60006144bf602b83614bfe565b91506144ca82615527565b604082019050919050565b60006144e2601e83614bfe565b91506144ed82615576565b602082019050919050565b6000614505602983614bfe565b91506145108261559f565b604082019050919050565b6000614528602083614bfe565b9150614533826155ee565b602082019050919050565b600061454b602083614bfe565b915061455682615617565b602082019050919050565b600061456e602f83614bfe565b915061457982615640565b604082019050919050565b6000614591601883614bfe565b915061459c8261568f565b602082019050919050565b60006145b4602183614bfe565b91506145bf826156b8565b604082019050919050565b60006145d7600083614bf3565b91506145e282615707565b600082019050919050565b60006145fa603d83614bfe565b91506146058261570a565b604082019050919050565b600061461d601d83614bfe565b915061462882615759565b602082019050919050565b6000614640602a83614bfe565b915061464b82615782565b604082019050919050565b61465f81614f52565b82525050565b60006146718284614177565b60148201915081905092915050565b600061468c82846141e5565b915081905092915050565b60006146a3828661425e565b91506146af828561425e565b91506146bb828461428f565b9150819050949350505050565b60006146d3826145ca565b9150819050919050565b60006020820190506146f26000830184614168565b92915050565b600060408201905061470d6000830185614159565b61471a6020830184614656565b9392505050565b60006080820190506147366000830187614168565b6147436020830186614168565b6147506040830185614656565b818103606083015261476281846141ac565b905095945050505050565b60006040820190506147826000830185614168565b61478f6020830184614656565b9392505050565b60006020820190506147ab600083018461418e565b92915050565b60006020820190506147c6600083018461419d565b92915050565b60006020820190506147e16000830184614216565b92915050565b600060208201905081810360008301526148018184614225565b905092915050565b600060208201905081810360008301526148228161430e565b9050919050565b6000602082019050818103600083015261484281614331565b9050919050565b6000602082019050818103600083015261486281614354565b9050919050565b6000602082019050818103600083015261488281614377565b9050919050565b600060208201905081810360008301526148a28161439a565b9050919050565b600060208201905081810360008301526148c2816143bd565b9050919050565b600060208201905081810360008301526148e2816143e0565b9050919050565b6000602082019050818103600083015261490281614403565b9050919050565b6000602082019050818103600083015261492281614426565b9050919050565b6000602082019050818103600083015261494281614449565b9050919050565b600060208201905081810360008301526149628161446c565b9050919050565b600060208201905081810360008301526149828161448f565b9050919050565b600060208201905081810360008301526149a2816144b2565b9050919050565b600060208201905081810360008301526149c2816144d5565b9050919050565b600060208201905081810360008301526149e2816144f8565b9050919050565b60006020820190508181036000830152614a028161451b565b9050919050565b60006020820190508181036000830152614a228161453e565b9050919050565b60006020820190508181036000830152614a4281614561565b9050919050565b60006020820190508181036000830152614a6281614584565b9050919050565b60006020820190508181036000830152614a82816145a7565b9050919050565b60006020820190508181036000830152614aa2816145ed565b9050919050565b60006020820190508181036000830152614ac281614610565b9050919050565b60006020820190508181036000830152614ae281614633565b9050919050565b6000602082019050614afe6000830184614656565b92915050565b6000614b0e614b1f565b9050614b1a8282615046565b919050565b6000604051905090565b600067ffffffffffffffff821115614b4457614b436151a0565b5b602082029050602081019050919050565b600067ffffffffffffffff821115614b7057614b6f6151a0565b5b614b79826151ed565b9050602081019050919050565b600067ffffffffffffffff821115614ba157614ba06151a0565b5b614baa826151ed565b9050602081019050919050565b60008190508160005260206000209050919050565b600081519050919050565b600081519050919050565b600082825260208201905092915050565b600081905092915050565b600082825260208201905092915050565b600081905092915050565b6000614c2582614f52565b9150614c3083614f52565b9250827fffffffffffffffffffffffffffffffffffffffffffffffffffffffffffffffff03821115614c6557614c646150e4565b5b828201905092915050565b6000614c7b82614f28565b9150614c8683614f28565b925082614c9657614c95615113565b5b600160000383147f800000000000000000000000000000000000000000000000000000000000000083141615614ccf57614cce6150e4565b5b828205905092915050565b6000614ce582614f52565b9150614cf083614f52565b925082614d0057614cff615113565b5b828204905092915050565b6000614d1682614f28565b9150614d2183614f28565b9250827f7fffffffffffffffffffffffffffffffffffffffffffffffffffffffffffffff0482116000841360008413161615614d6057614d5f6150e4565b5b817f80000000000000000000000000000000000000000000000000000000000000000583126000841260008413161615614d9d57614d9c6150e4565b5b827f80000000000000000000000000000000000000000000000000000000000000000582126000841360008412161615614dda57614dd96150e4565b5b827f7fffffffffffffffffffffffffffffffffffffffffffffffffffffffffffffff0582126000841260008412161615614e1757614e166150e4565b5b828202905092915050565b6000614e2d82614f52565b9150614e3883614f52565b9250817fffffffffffffffffffffffffffffffffffffffffffffffffffffffffffffffff0483118215151615614e7157614e706150e4565b5b828202905092915050565b6000614e8782614f52565b9150614e9283614f52565b925082821015614ea557614ea46150e4565b5b828203905092915050565b6000614ebb82614f32565b9050919050565b6000614ecd82614f32565b9050919050565b60008115159050919050565b6000819050919050565b60007fffffffff0000000000000000000000000000000000000000000000000000000082169050919050565b6000614f2182614eb0565b9050919050565b6000819050919050565b600073ffffffffffffffffffffffffffffffffffffffff82169050919050565b6000819050919050565b600069ffffffffffffffffffff82169050919050565b6000614f7d82614f84565b9050919050565b6000614f8f82614f96565b9050919050565b6000614fa182614f32565b9050919050565b82818337600083830152505050565b60005b83811015614fd5578082015181840152602081019050614fba565b83811115614fe4576000848401525b50505050565b6000614ff582614f52565b91506000821415615009576150086150e4565b5b600182039050919050565b6000600282049050600182168061502c57607f821691505b602082108114156150405761503f615142565b5b50919050565b61504f826151ed565b810181811067ffffffffffffffff8211171561506e5761506d6151a0565b5b80604052505050565b600061508282614f52565b91507fffffffffffffffffffffffffffffffffffffffffffffffffffffffffffffffff8214156150b5576150b46150e4565b5b600182019050919050565b60006150cb826150d2565b9050919050565b60006150dd826151fe565b9050919050565b7f4e487b7100000000000000000000000000000000000000000000000000000000600052601160045260246000fd5b7f4e487b7100000000000000000000000000000000000000000000000000000000600052601260045260246000fd5b7f4e487b7100000000000000000000000000000000000000000000000000000000600052602260045260246000fd5b7f4e487b7100000000000000000000000000000000000000000000000000000000600052603260045260246000fd5b7f4e487b7100000000000000000000000000000000000000000000000000000000600052604160045260246000fd5b600080fd5b600080fd5b600080fd5b600080fd5b600080fd5b600080fd5b6000601f19601f8301169050919050565b60008160601b9050919050565b7f4e6f7420656e6f75676820726577617264730000000000000000000000000000600082015250565b7f4552433732313a2063616c6c6572206973206e6f7420746f6b656e206f776e6560008201527f72206f7220617070726f76656400000000000000000000000000000000000000602082015250565b7f4552433732313a207472616e7366657220746f206e6f6e20455243373231526560008201527f63656976657220696d706c656d656e7465720000000000000000000000000000602082015250565b7f4f776e61626c653a206e6577206f776e657220697320746865207a65726f206160008201527f6464726573730000000000000000000000000000000000000000000000000000602082015250565b7f4552433732313a207472616e736665722066726f6d20696e636f72726563742060008201527f6f776e6572000000000000000000000000000000000000000000000000000000602082015250565b7f4552433732313a20746f6b656e20616c7265616479206d696e74656400000000600082015250565b7f5061796d656e7453706c69747465723a206163636f756e7420686173206e6f2060008201527f7368617265730000000000000000000000000000000000000000000000000000602082015250565b7f4552433732313a207472616e7366657220746f20746865207a65726f2061646460008201527f7265737300000000000000000000000000000000000000000000000000000000602082015250565b7f4552433732313a20617070726f766520746f2063616c6c657200000000000000600082015250565b7f416464726573733a20756e61626c6520746f2073656e642076616c75652c207260008201527f6563697069656e74206d61792068617665207265766572746564000000000000602082015250565b7f416464726573733a20696e73756666696369656e742062616c616e6365000000600082015250565b7f416464726573733a20696e73756666696369656e742062616c616e636520666f60008201527f722063616c6c0000000000000000000000000000000000000000000000000000602082015250565b7f5061796d656e7453706c69747465723a206163636f756e74206973206e6f742060008201527f647565207061796d656e74000000000000000000000000000000000000000000602082015250565b7f4164647265737320646f6573206e6f7420657869737420696e206c6973740000600082015250565b7f4552433732313a2061646472657373207a65726f206973206e6f74206120766160008201527f6c6964206f776e65720000000000000000000000000000000000000000000000602082015250565b7f4552433732313a206d696e7420746f20746865207a65726f2061646472657373600082015250565b7f4f776e61626c653a2063616c6c6572206973206e6f7420746865206f776e6572600082015250565b7f4552433732314d657461646174613a2055524920717565727920666f72206e6f60008201527f6e6578697374656e7420746f6b656e0000000000000000000000000000000000602082015250565b7f4552433732313a20696e76616c696420746f6b656e2049440000000000000000600082015250565b7f4552433732313a20617070726f76616c20746f2063757272656e74206f776e6560008201527f7200000000000000000000000000000000000000000000000000000000000000602082015250565b50565b7f4552433732313a20617070726f76652063616c6c6572206973206e6f7420746f60008201527f6b656e206f776e6572206f7220617070726f76656420666f7220616c6c000000602082015250565b7f416464726573733a2063616c6c20746f206e6f6e2d636f6e7472616374000000600082015250565b7f5361666545524332303a204552433230206f7065726174696f6e20646964206e60008201527f6f74207375636365656400000000000000000000000000000000000000000000602082015250565b6157da81614eb0565b81146157e557600080fd5b50565b6157f181614ec2565b81146157fc57600080fd5b50565b61580881614ed4565b811461581357600080fd5b50565b61581f81614ee0565b811461582a57600080fd5b50565b61583681614eea565b811461584157600080fd5b50565b61584d81614f16565b811461585857600080fd5b50565b61586481614f28565b811461586f57600080fd5b50565b61587b81614f52565b811461588657600080fd5b50565b61589281614f5c565b811461589d57600080fd5b5056fea264697066735822122060088f9b4f334b6e8d9135b66b4154c615c2751b9938fe28972bbc9b6bbac36d64736f6c63430008070033",
  "linkReferences": {},
  "deployedLinkReferences": {}
}